{
  "contractName": "Dex",
  "abi": [
    {
      "inputs": [],
      "stateMutability": "nonpayable",
      "type": "constructor"
    },
    {
      "anonymous": false,
      "inputs": [
        {
          "indexed": false,
          "internalType": "uint256",
          "name": "tradeId",
          "type": "uint256"
        },
        {
          "indexed": false,
          "internalType": "uint256",
          "name": "orderId",
          "type": "uint256"
        },
        {
          "indexed": true,
          "internalType": "bytes32",
          "name": "ticker",
          "type": "bytes32"
        },
        {
          "indexed": true,
          "internalType": "address",
          "name": "trader1",
          "type": "address"
        },
        {
          "indexed": true,
          "internalType": "address",
          "name": "trader2",
          "type": "address"
        },
        {
          "indexed": false,
          "internalType": "uint256",
          "name": "amount",
          "type": "uint256"
        },
        {
          "indexed": false,
          "internalType": "uint256",
          "name": "price",
          "type": "uint256"
        },
        {
          "indexed": false,
          "internalType": "uint256",
          "name": "date",
          "type": "uint256"
        }
      ],
      "name": "NewTrade",
      "type": "event"
    },
    {
      "inputs": [],
      "name": "admin",
      "outputs": [
        {
          "internalType": "address",
          "name": "",
          "type": "address"
        }
      ],
      "stateMutability": "view",
      "type": "function",
      "constant": true
    },
    {
      "inputs": [],
      "name": "nextOrderId",
      "outputs": [
        {
          "internalType": "uint256",
          "name": "",
          "type": "uint256"
        }
      ],
      "stateMutability": "view",
      "type": "function",
      "constant": true
    },
    {
      "inputs": [],
      "name": "nextTradeId",
      "outputs": [
        {
          "internalType": "uint256",
          "name": "",
          "type": "uint256"
        }
      ],
      "stateMutability": "view",
      "type": "function",
      "constant": true
    },
    {
      "inputs": [
        {
          "internalType": "bytes32",
          "name": "",
          "type": "bytes32"
        },
        {
          "internalType": "uint256",
          "name": "",
          "type": "uint256"
        },
        {
          "internalType": "uint256",
          "name": "",
          "type": "uint256"
        }
      ],
      "name": "orderBook",
      "outputs": [
        {
          "internalType": "uint256",
          "name": "id",
          "type": "uint256"
        },
        {
          "internalType": "address",
          "name": "trader",
          "type": "address"
        },
        {
          "internalType": "enum Dex.Side",
          "name": "side",
          "type": "uint8"
        },
        {
          "internalType": "bytes32",
          "name": "ticker",
          "type": "bytes32"
        },
        {
          "internalType": "uint256",
          "name": "amount",
          "type": "uint256"
        },
        {
          "internalType": "uint256",
          "name": "filled",
          "type": "uint256"
        },
        {
          "internalType": "uint256",
          "name": "price",
          "type": "uint256"
        },
        {
          "internalType": "uint256",
          "name": "date",
          "type": "uint256"
        }
      ],
      "stateMutability": "view",
      "type": "function",
      "constant": true
    },
    {
      "inputs": [
        {
          "internalType": "uint256",
          "name": "",
          "type": "uint256"
        }
      ],
      "name": "tokenList",
      "outputs": [
        {
          "internalType": "bytes32",
          "name": "",
          "type": "bytes32"
        }
      ],
      "stateMutability": "view",
      "type": "function",
      "constant": true
    },
    {
      "inputs": [
        {
          "internalType": "bytes32",
          "name": "",
          "type": "bytes32"
        }
      ],
      "name": "tokens",
      "outputs": [
        {
          "internalType": "bytes32",
          "name": "ticker",
          "type": "bytes32"
        },
        {
          "internalType": "address",
          "name": "tokenAddress",
          "type": "address"
        }
      ],
      "stateMutability": "view",
      "type": "function",
      "constant": true
    },
    {
      "inputs": [
        {
          "internalType": "address",
          "name": "",
          "type": "address"
        },
        {
          "internalType": "bytes32",
          "name": "",
          "type": "bytes32"
        }
      ],
      "name": "traderBalances",
      "outputs": [
        {
          "internalType": "uint256",
          "name": "",
          "type": "uint256"
        }
      ],
      "stateMutability": "view",
      "type": "function",
      "constant": true
    },
    {
      "inputs": [
        {
          "internalType": "bytes32",
          "name": "ticker",
          "type": "bytes32"
        },
        {
          "internalType": "enum Dex.Side",
          "name": "side",
          "type": "uint8"
        }
      ],
      "name": "getOrders",
      "outputs": [
        {
          "components": [
            {
              "internalType": "uint256",
              "name": "id",
              "type": "uint256"
            },
            {
              "internalType": "address",
              "name": "trader",
              "type": "address"
            },
            {
              "internalType": "enum Dex.Side",
              "name": "side",
              "type": "uint8"
            },
            {
              "internalType": "bytes32",
              "name": "ticker",
              "type": "bytes32"
            },
            {
              "internalType": "uint256",
              "name": "amount",
              "type": "uint256"
            },
            {
              "internalType": "uint256",
              "name": "filled",
              "type": "uint256"
            },
            {
              "internalType": "uint256",
              "name": "price",
              "type": "uint256"
            },
            {
              "internalType": "uint256",
              "name": "date",
              "type": "uint256"
            }
          ],
          "internalType": "struct Dex.Order[]",
          "name": "",
          "type": "tuple[]"
        }
      ],
      "stateMutability": "view",
      "type": "function",
      "constant": true
    },
    {
      "inputs": [],
      "name": "getTokens",
      "outputs": [
        {
          "components": [
            {
              "internalType": "bytes32",
              "name": "ticker",
              "type": "bytes32"
            },
            {
              "internalType": "address",
              "name": "tokenAddress",
              "type": "address"
            }
          ],
          "internalType": "struct Dex.Token[]",
          "name": "",
          "type": "tuple[]"
        }
      ],
      "stateMutability": "view",
      "type": "function",
      "constant": true
    },
    {
      "inputs": [
        {
          "internalType": "bytes32",
          "name": "ticker",
          "type": "bytes32"
        },
        {
          "internalType": "address",
          "name": "tokenAddress",
          "type": "address"
        }
      ],
      "name": "addToken",
      "outputs": [],
      "stateMutability": "nonpayable",
      "type": "function"
    },
    {
      "inputs": [
        {
          "internalType": "bytes32",
          "name": "ticker",
          "type": "bytes32"
        },
        {
          "internalType": "uint256",
          "name": "amount",
          "type": "uint256"
        }
      ],
      "name": "deposit",
      "outputs": [],
      "stateMutability": "nonpayable",
      "type": "function"
    },
    {
      "inputs": [
        {
          "internalType": "bytes32",
          "name": "ticker",
          "type": "bytes32"
        },
        {
          "internalType": "uint256",
          "name": "amount",
          "type": "uint256"
        }
      ],
      "name": "withdraw",
      "outputs": [],
      "stateMutability": "nonpayable",
      "type": "function"
    },
    {
      "inputs": [
        {
          "internalType": "bytes32",
          "name": "ticker",
          "type": "bytes32"
        },
        {
          "internalType": "uint256",
          "name": "amount",
          "type": "uint256"
        },
        {
          "internalType": "uint256",
          "name": "price",
          "type": "uint256"
        },
        {
          "internalType": "enum Dex.Side",
          "name": "side",
          "type": "uint8"
        }
      ],
      "name": "createLimitOrder",
      "outputs": [],
      "stateMutability": "nonpayable",
      "type": "function"
    },
    {
      "inputs": [
        {
          "internalType": "bytes32",
          "name": "ticker",
          "type": "bytes32"
        },
        {
          "internalType": "uint256",
          "name": "amount",
          "type": "uint256"
        },
        {
          "internalType": "enum Dex.Side",
          "name": "side",
          "type": "uint8"
        }
      ],
      "name": "createMarketOrder",
      "outputs": [],
      "stateMutability": "nonpayable",
      "type": "function"
    }
  ],
  "bytecode": "0x608060405234801561001057600080fd5b5033600460006101000a81548173ffffffffffffffffffffffffffffffffffffffff021916908373ffffffffffffffffffffffffffffffffffffffff160217905550613816806100616000396000f3fe608060405234801561001057600080fd5b50600436106100ea5760003560e01c8063813ad0831161008c5780639ead7222116100665780639ead722214610263578063aa6ca80814610293578063d9c0c950146102b1578063f851a440146102cd576100ea565b8063813ad083146101f8578063904194a3146102165780639776aacf14610247576100ea565b80632a58b330116100c85780632a58b3301461015e57806346e9658b1461017c57806372ce957e146101ac5780637f2c6246146101dc576100ea565b8063040cf020146100ef5780630bb431b61461010b5780631de26e1614610142575b600080fd5b61010960048036038101906101049190612ce6565b6102eb565b005b61012560048036038101906101209190612d71565b610553565b6040516101399897969594939291906133e0565b60405180910390f35b61015c60048036038101906101579190612ce6565b6105f2565b005b6101666107c9565b60405161017391906133c5565b60405180910390f35b61019660048036038101906101919190612caa565b6107cf565b6040516101a3919061327d565b60405180910390f35b6101c660048036038101906101c19190612be0565b6109a5565b6040516101d391906133c5565b60405180910390f35b6101f660048036038101906101f19190612d22565b6109ca565b005b610200611bac565b60405161020d91906133c5565b60405180910390f35b610230600480360381019061022b9190612c45565b611bb2565b60405161023e9291906132dc565b60405180910390f35b610261600480360381019061025c9190612c6e565b611bf6565b005b61027d60048036038101906102789190612e23565b611d44565b60405161028a91906132c1565b60405180910390f35b61029b611d68565b6040516102a8919061329f565b60405180910390f35b6102cb60048036038101906102c69190612dc0565b611f59565b005b6102d5612b1e565b6040516102e29190613202565b60405180910390f35b81600073ffffffffffffffffffffffffffffffffffffffff1660008083815260200190815260200160002060010160009054906101000a900473ffffffffffffffffffffffffffffffffffffffff1673ffffffffffffffffffffffffffffffffffffffff161415610391576040517f08c379a0000000000000000000000000000000000000000000000000000000008152600401610388906133a5565b60405180910390fd5b81600160003373ffffffffffffffffffffffffffffffffffffffff1673ffffffffffffffffffffffffffffffffffffffff1681526020019081526020016000206000858152602001908152602001600020541015610424576040517f08c379a000000000000000000000000000000000000000000000000000000000815260040161041b90613305565b60405180910390fd5b81600160003373ffffffffffffffffffffffffffffffffffffffff1673ffffffffffffffffffffffffffffffffffffffff1681526020019081526020016000206000858152602001908152602001600020600082825461048491906135e4565b9250508190555060008084815260200190815260200160002060010160009054906101000a900473ffffffffffffffffffffffffffffffffffffffff1673ffffffffffffffffffffffffffffffffffffffff1663a9059cbb33846040518363ffffffff1660e01b81526004016104fb929190613254565b602060405180830381600087803b15801561051557600080fd5b505af1158015610529573d6000803e3d6000fd5b505050506040513d601f19601f8201168201806040525081019061054d9190612c1c565b50505050565b6002602052826000526040600020602052816000526040600020818154811061057b57600080fd5b906000526020600020906007020160009250925050508060000154908060010160009054906101000a900473ffffffffffffffffffffffffffffffffffffffff16908060010160149054906101000a900460ff16908060020154908060030154908060040154908060050154908060060154905088565b81600073ffffffffffffffffffffffffffffffffffffffff1660008083815260200190815260200160002060010160009054906101000a900473ffffffffffffffffffffffffffffffffffffffff1673ffffffffffffffffffffffffffffffffffffffff161415610698576040517f08c379a000000000000000000000000000000000000000000000000000000000815260040161068f906133a5565b60405180910390fd5b60008084815260200190815260200160002060010160009054906101000a900473ffffffffffffffffffffffffffffffffffffffff1673ffffffffffffffffffffffffffffffffffffffff166323b872dd3330856040518463ffffffff1660e01b815260040161070a9392919061321d565b602060405180830381600087803b15801561072457600080fd5b505af1158015610738573d6000803e3d6000fd5b505050506040513d601f19601f8201168201806040525081019061075c9190612c1c565b5081600160003373ffffffffffffffffffffffffffffffffffffffff1673ffffffffffffffffffffffffffffffffffffffff168152602001908152602001600020600085815260200190815260200160002060008282546107bd9190613534565b92505081905550505050565b60055481565b606060026000848152602001908152602001600020600083600181111561081f577f4e487b7100000000000000000000000000000000000000000000000000000000600052602160045260246000fd5b8152602001908152602001600020805480602002602001604051908101604052809291908181526020016000905b82821015610999578382906000526020600020906007020160405180610100016040529081600082015481526020016001820160009054906101000a900473ffffffffffffffffffffffffffffffffffffffff1673ffffffffffffffffffffffffffffffffffffffff1673ffffffffffffffffffffffffffffffffffffffff1681526020016001820160149054906101000a900460ff16600181111561091c577f4e487b7100000000000000000000000000000000000000000000000000000000600052602160045260246000fd5b6001811115610954577f4e487b7100000000000000000000000000000000000000000000000000000000600052602160045260246000fd5b8152602001600282015481526020016003820154815260200160048201548152602001600582015481526020016006820154815250508152602001906001019061084d565b50505050905092915050565b6001602052816000526040600020602052806000526040600020600091509150505481565b82600073ffffffffffffffffffffffffffffffffffffffff1660008083815260200190815260200160002060010160009054906101000a900473ffffffffffffffffffffffffffffffffffffffff1673ffffffffffffffffffffffffffffffffffffffff161415610a70576040517f08c379a0000000000000000000000000000000000000000000000000000000008152600401610a67906133a5565b60405180910390fd5b837f4441490000000000000000000000000000000000000000000000000000000000811415610ad4576040517f08c379a0000000000000000000000000000000000000000000000000000000008152600401610acb90613365565b60405180910390fd5b600180811115610b0d577f4e487b7100000000000000000000000000000000000000000000000000000000600052602160045260246000fd5b836001811115610b46577f4e487b7100000000000000000000000000000000000000000000000000000000600052602160045260246000fd5b1415610be05783600160003373ffffffffffffffffffffffffffffffffffffffff1673ffffffffffffffffffffffffffffffffffffffff1681526020019081526020016000206000878152602001908152602001600020541015610bdf576040517f08c379a0000000000000000000000000000000000000000000000000000000008152600401610bd690613385565b60405180910390fd5b5b6000600260008781526020019081526020016000206000806001811115610c30577f4e487b7100000000000000000000000000000000000000000000000000000000600052602160045260246000fd5b866001811115610c69577f4e487b7100000000000000000000000000000000000000000000000000000000600052602160045260246000fd5b14610c75576000610c78565b60015b6001811115610cb0577f4e487b7100000000000000000000000000000000000000000000000000000000600052602160045260246000fd5b815260200190815260200160002090506000808690505b828054905082108015610cda5750600081115b1561184f576000838381548110610d1a577f4e487b7100000000000000000000000000000000000000000000000000000000600052603260045260246000fd5b906000526020600020906007020160040154848481548110610d65577f4e487b7100000000000000000000000000000000000000000000000000000000600052603260045260246000fd5b906000526020600020906007020160030154610d8191906135e4565b90506000818311610d925782610d94565b815b90508083610da291906135e4565b925080858581548110610dde577f4e487b7100000000000000000000000000000000000000000000000000000000600052603260045260246000fd5b90600052602060002090600702016004016000828254610dfe9190613534565b925050819055503373ffffffffffffffffffffffffffffffffffffffff16858581548110610e55577f4e487b7100000000000000000000000000000000000000000000000000000000600052603260045260246000fd5b906000526020600020906007020160010160009054906101000a900473ffffffffffffffffffffffffffffffffffffffff1673ffffffffffffffffffffffffffffffffffffffff168b7fdb0c486e680ba8026643e6a85f8d157b5e7bcd4b32b54d564542570a9eb20416600654898981548110610efb577f4e487b7100000000000000000000000000000000000000000000000000000000600052603260045260246000fd5b906000526020600020906007020160000154868b8b81548110610f47577f4e487b7100000000000000000000000000000000000000000000000000000000600052603260045260246000fd5b90600052602060002090600702016005015442604051610f6b95949392919061345e565b60405180910390a4600180811115610fac577f4e487b7100000000000000000000000000000000000000000000000000000000600052602160045260246000fd5b886001811115610fe5577f4e487b7100000000000000000000000000000000000000000000000000000000600052602160045260246000fd5b14156113465780600160003373ffffffffffffffffffffffffffffffffffffffff1673ffffffffffffffffffffffffffffffffffffffff16815260200190815260200160002060008c8152602001908152602001600020600082825461104b91906135e4565b9250508190555084848154811061108b577f4e487b7100000000000000000000000000000000000000000000000000000000600052603260045260246000fd5b906000526020600020906007020160050154816110a8919061358a565b600160003373ffffffffffffffffffffffffffffffffffffffff1673ffffffffffffffffffffffffffffffffffffffff16815260200190815260200160002060007f4441490000000000000000000000000000000000000000000000000000000000815260200190815260200160002060008282546111279190613534565b92505081905550806001600087878154811061116c577f4e487b7100000000000000000000000000000000000000000000000000000000600052603260045260246000fd5b906000526020600020906007020160010160009054906101000a900473ffffffffffffffffffffffffffffffffffffffff1673ffffffffffffffffffffffffffffffffffffffff1673ffffffffffffffffffffffffffffffffffffffff16815260200190815260200160002060008c815260200190815260200160002060008282546111f89190613534565b92505081905550848481548110611238577f4e487b7100000000000000000000000000000000000000000000000000000000600052603260045260246000fd5b90600052602060002090600702016005015481611255919061358a565b60016000878781548110611292577f4e487b7100000000000000000000000000000000000000000000000000000000600052603260045260246000fd5b906000526020600020906007020160010160009054906101000a900473ffffffffffffffffffffffffffffffffffffffff1673ffffffffffffffffffffffffffffffffffffffff1673ffffffffffffffffffffffffffffffffffffffff16815260200190815260200160002060007f44414900000000000000000000000000000000000000000000000000000000008152602001908152602001600020600082825461133e91906135e4565b925050819055505b60006001811115611380577f4e487b7100000000000000000000000000000000000000000000000000000000600052602160045260246000fd5b8860018111156113b9577f4e487b7100000000000000000000000000000000000000000000000000000000600052602160045260246000fd5b1415611822578484815481106113f8577f4e487b7100000000000000000000000000000000000000000000000000000000600052603260045260246000fd5b90600052602060002090600702016005015481611415919061358a565b600160003373ffffffffffffffffffffffffffffffffffffffff1673ffffffffffffffffffffffffffffffffffffffff16815260200190815260200160002060007f444149000000000000000000000000000000000000000000000000000000000081526020019081526020016000205410156114c7576040517f08c379a00000000000000000000000000000000000000000000000000000000081526004016114be90613345565b60405180910390fd5b80600160003373ffffffffffffffffffffffffffffffffffffffff1673ffffffffffffffffffffffffffffffffffffffff16815260200190815260200160002060008c815260200190815260200160002060008282546115279190613534565b92505081905550848481548110611567577f4e487b7100000000000000000000000000000000000000000000000000000000600052603260045260246000fd5b90600052602060002090600702016005015481611584919061358a565b600160003373ffffffffffffffffffffffffffffffffffffffff1673ffffffffffffffffffffffffffffffffffffffff16815260200190815260200160002060007f44414900000000000000000000000000000000000000000000000000000000008152602001908152602001600020600082825461160391906135e4565b925050819055508060016000878781548110611648577f4e487b7100000000000000000000000000000000000000000000000000000000600052603260045260246000fd5b906000526020600020906007020160010160009054906101000a900473ffffffffffffffffffffffffffffffffffffffff1673ffffffffffffffffffffffffffffffffffffffff1673ffffffffffffffffffffffffffffffffffffffff16815260200190815260200160002060008c815260200190815260200160002060008282546116d491906135e4565b92505081905550848481548110611714577f4e487b7100000000000000000000000000000000000000000000000000000000600052603260045260246000fd5b90600052602060002090600702016005015481611731919061358a565b6001600087878154811061176e577f4e487b7100000000000000000000000000000000000000000000000000000000600052603260045260246000fd5b906000526020600020906007020160010160009054906101000a900473ffffffffffffffffffffffffffffffffffffffff1673ffffffffffffffffffffffffffffffffffffffff1673ffffffffffffffffffffffffffffffffffffffff16815260200190815260200160002060007f44414900000000000000000000000000000000000000000000000000000000008152602001908152602001600020600082825461181a9190613534565b925050819055505b60066000815480929190611835906136b9565b91905055508380611845906136b9565b9450505050610cc7565b600091505b8280549050821080156118fa575082828154811061189b577f4e487b7100000000000000000000000000000000000000000000000000000000600052603260045260246000fd5b9060005260206000209060070201600301548383815481106118e6577f4e487b7100000000000000000000000000000000000000000000000000000000600052603260045260246000fd5b906000526020600020906007020160040154145b15611ba25760008290505b6001848054905061191691906135e4565b811015611ad3578360018261192b9190613534565b81548110611962577f4e487b7100000000000000000000000000000000000000000000000000000000600052603260045260246000fd5b90600052602060002090600702018482815481106119a9577f4e487b7100000000000000000000000000000000000000000000000000000000600052603260045260246000fd5b9060005260206000209060070201600082015481600001556001820160009054906101000a900473ffffffffffffffffffffffffffffffffffffffff168160010160006101000a81548173ffffffffffffffffffffffffffffffffffffffff021916908373ffffffffffffffffffffffffffffffffffffffff1602179055506001820160149054906101000a900460ff168160010160146101000a81548160ff02191690836001811115611a86577f4e487b7100000000000000000000000000000000000000000000000000000000600052602160045260246000fd5b021790555060028201548160020155600382015481600301556004820154816004015560058201548160050155600682015481600601559050508080611acb906136b9565b915050611905565b5082805480611b0b577f4e487b7100000000000000000000000000000000000000000000000000000000600052603160045260246000fd5b60019003818190600052602060002090600702016000808201600090556001820160006101000a81549073ffffffffffffffffffffffffffffffffffffffff02191690556001820160146101000a81549060ff021916905560028201600090556003820160009055600482016000905560058201600090556006820160009055505090558180611b9a906136b9565b925050611854565b5050505050505050565b60065481565b60006020528060005260406000206000915090508060000154908060010160009054906101000a900473ffffffffffffffffffffffffffffffffffffffff16905082565b600460009054906101000a900473ffffffffffffffffffffffffffffffffffffffff1673ffffffffffffffffffffffffffffffffffffffff163373ffffffffffffffffffffffffffffffffffffffff1614611c86576040517f08c379a0000000000000000000000000000000000000000000000000000000008152600401611c7d90613325565b60405180910390fd5b60405180604001604052808381526020018273ffffffffffffffffffffffffffffffffffffffff168152506000808481526020019081526020016000206000820151816000015560208201518160010160006101000a81548173ffffffffffffffffffffffffffffffffffffffff021916908373ffffffffffffffffffffffffffffffffffffffff16021790555090505060038290806001815401808255809150506001900390600052602060002001600090919091909150555050565b60038181548110611d5457600080fd5b906000526020600020016000915090505481565b6060600060038054905067ffffffffffffffff811115611db1577f4e487b7100000000000000000000000000000000000000000000000000000000600052604160045260246000fd5b604051908082528060200260200182016040528015611dea57816020015b611dd7612b44565b815260200190600190039081611dcf5790505b50905060005b600380549050811015611f5157604051806040016040528060008060038581548110611e45577f4e487b7100000000000000000000000000000000000000000000000000000000600052603260045260246000fd5b9060005260206000200154815260200190815260200160002060000154815260200160008060038581548110611ea4577f4e487b7100000000000000000000000000000000000000000000000000000000600052603260045260246000fd5b9060005260206000200154815260200190815260200160002060010160009054906101000a900473ffffffffffffffffffffffffffffffffffffffff1673ffffffffffffffffffffffffffffffffffffffff16815250828281518110611f33577f4e487b7100000000000000000000000000000000000000000000000000000000600052603260045260246000fd5b60200260200101819052508080611f49906136b9565b915050611df0565b508091505090565b83600073ffffffffffffffffffffffffffffffffffffffff1660008083815260200190815260200160002060010160009054906101000a900473ffffffffffffffffffffffffffffffffffffffff1673ffffffffffffffffffffffffffffffffffffffff161415611fff576040517f08c379a0000000000000000000000000000000000000000000000000000000008152600401611ff6906133a5565b60405180910390fd5b847f4441490000000000000000000000000000000000000000000000000000000000811415612063576040517f08c379a000000000000000000000000000000000000000000000000000000000815260040161205a90613365565b60405180910390fd5b60018081111561209c577f4e487b7100000000000000000000000000000000000000000000000000000000600052602160045260246000fd5b8360018111156120d5577f4e487b7100000000000000000000000000000000000000000000000000000000600052602160045260246000fd5b14156121735784600160003373ffffffffffffffffffffffffffffffffffffffff1673ffffffffffffffffffffffffffffffffffffffff168152602001908152602001600020600088815260200190815260200160002054101561216e576040517f08c379a000000000000000000000000000000000000000000000000000000000815260040161216590613385565b60405180910390fd5b612232565b838561217f919061358a565b600160003373ffffffffffffffffffffffffffffffffffffffff1673ffffffffffffffffffffffffffffffffffffffff16815260200190815260200160002060007f44414900000000000000000000000000000000000000000000000000000000008152602001908152602001600020541015612231576040517f08c379a000000000000000000000000000000000000000000000000000000000815260040161222890613345565b60405180910390fd5b5b6000600260008881526020019081526020016000206000856001811115612282577f4e487b7100000000000000000000000000000000000000000000000000000000600052602160045260246000fd5b815260200190815260200160002090508060405180610100016040528060055481526020013373ffffffffffffffffffffffffffffffffffffffff1681526020018660018111156122fc577f4e487b7100000000000000000000000000000000000000000000000000000000600052602160045260246000fd5b8152602001898152602001888152602001600081526020018781526020014281525090806001815401808255809150506001900390600052602060002090600702016000909190919091506000820151816000015560208201518160010160006101000a81548173ffffffffffffffffffffffffffffffffffffffff021916908373ffffffffffffffffffffffffffffffffffffffff16021790555060408201518160010160146101000a81548160ff021916908360018111156123e9577f4e487b7100000000000000000000000000000000000000000000000000000000600052602160045260246000fd5b0217905550606082015181600201556080820151816003015560a0820151816004015560c0820151816005015560e082015181600601555050600080828054905011612436576000612448565b6001828054905061244791906135e4565b5b90505b6000811115612afc576000600181111561248e577f4e487b7100000000000000000000000000000000000000000000000000000000600052602160045260246000fd5b8560018111156124c7577f4e487b7100000000000000000000000000000000000000000000000000000000600052602160045260246000fd5b1480156125735750818181548110612508577f4e487b7100000000000000000000000000000000000000000000000000000000600052603260045260246000fd5b9060005260206000209060070201600501548260018361252891906135e4565b8154811061255f577f4e487b7100000000000000000000000000000000000000000000000000000000600052603260045260246000fd5b906000526020600020906007020160050154115b1561257d57612afc565b6001808111156125b6577f4e487b7100000000000000000000000000000000000000000000000000000000600052602160045260246000fd5b8560018111156125ef577f4e487b7100000000000000000000000000000000000000000000000000000000600052602160045260246000fd5b14801561269b5750818181548110612630577f4e487b7100000000000000000000000000000000000000000000000000000000600052603260045260246000fd5b9060005260206000209060070201600501548260018361265091906135e4565b81548110612687577f4e487b7100000000000000000000000000000000000000000000000000000000600052603260045260246000fd5b906000526020600020906007020160050154105b156126a557612afc565b6000826001836126b591906135e4565b815481106126ec577f4e487b7100000000000000000000000000000000000000000000000000000000600052603260045260246000fd5b906000526020600020906007020160405180610100016040529081600082015481526020016001820160009054906101000a900473ffffffffffffffffffffffffffffffffffffffff1673ffffffffffffffffffffffffffffffffffffffff1673ffffffffffffffffffffffffffffffffffffffff1681526020016001820160149054906101000a900460ff1660018111156127b1577f4e487b7100000000000000000000000000000000000000000000000000000000600052602160045260246000fd5b60018111156127e9577f4e487b7100000000000000000000000000000000000000000000000000000000600052602160045260246000fd5b815260200160028201548152602001600382015481526020016004820154815260200160058201548152602001600682015481525050905082828154811061285a577f4e487b7100000000000000000000000000000000000000000000000000000000600052603260045260246000fd5b90600052602060002090600702018360018461287691906135e4565b815481106128ad577f4e487b7100000000000000000000000000000000000000000000000000000000600052603260045260246000fd5b9060005260206000209060070201600082015481600001556001820160009054906101000a900473ffffffffffffffffffffffffffffffffffffffff168160010160006101000a81548173ffffffffffffffffffffffffffffffffffffffff021916908373ffffffffffffffffffffffffffffffffffffffff1602179055506001820160149054906101000a900460ff168160010160146101000a81548160ff0219169083600181111561298a577f4e487b7100000000000000000000000000000000000000000000000000000000600052602160045260246000fd5b02179055506002820154816002015560038201548160030155600482015481600401556005820154816005015560068201548160060155905050808383815481106129fe577f4e487b7100000000000000000000000000000000000000000000000000000000600052603260045260246000fd5b90600052602060002090600702016000820151816000015560208201518160010160006101000a81548173ffffffffffffffffffffffffffffffffffffffff021916908373ffffffffffffffffffffffffffffffffffffffff16021790555060408201518160010160146101000a81548160ff02191690836001811115612aae577f4e487b7100000000000000000000000000000000000000000000000000000000600052602160045260246000fd5b0217905550606082015181600201556080820151816003015560a0820151816004015560c0820151816005015560e082015181600601559050508180612af39061368f565b9250505061244b565b60056000815480929190612b0f906136b9565b91905055505050505050505050565b600460009054906101000a900473ffffffffffffffffffffffffffffffffffffffff1681565b604051806040016040528060008019168152602001600073ffffffffffffffffffffffffffffffffffffffff1681525090565b600081359050612b8681613774565b92915050565b600081519050612b9b8161378b565b92915050565b600081359050612bb0816137a2565b92915050565b600081359050612bc5816137b9565b92915050565b600081359050612bda816137c9565b92915050565b60008060408385031215612bf357600080fd5b6000612c0185828601612b77565b9250506020612c1285828601612ba1565b9150509250929050565b600060208284031215612c2e57600080fd5b6000612c3c84828501612b8c565b91505092915050565b600060208284031215612c5757600080fd5b6000612c6584828501612ba1565b91505092915050565b60008060408385031215612c8157600080fd5b6000612c8f85828601612ba1565b9250506020612ca085828601612b77565b9150509250929050565b60008060408385031215612cbd57600080fd5b6000612ccb85828601612ba1565b9250506020612cdc85828601612bb6565b9150509250929050565b60008060408385031215612cf957600080fd5b6000612d0785828601612ba1565b9250506020612d1885828601612bcb565b9150509250929050565b600080600060608486031215612d3757600080fd5b6000612d4586828701612ba1565b9350506020612d5686828701612bcb565b9250506040612d6786828701612bb6565b9150509250925092565b600080600060608486031215612d8657600080fd5b6000612d9486828701612ba1565b9350506020612da586828701612bcb565b9250506040612db686828701612bcb565b9150509250925092565b60008060008060808587031215612dd657600080fd5b6000612de487828801612ba1565b9450506020612df587828801612bcb565b9350506040612e0687828801612bcb565b9250506060612e1787828801612bb6565b91505092959194509250565b600060208284031215612e3557600080fd5b6000612e4384828501612bcb565b91505092915050565b6000612e588383613113565b6101008301905092915050565b6000612e7183836131b5565b60408301905092915050565b612e8681613618565b82525050565b612e9581613618565b82525050565b6000612ea6826134d1565b612eb08185613501565b9350612ebb836134b1565b8060005b83811015612eec578151612ed38882612e4c565b9750612ede836134e7565b925050600181019050612ebf565b5085935050505092915050565b6000612f04826134dc565b612f0e8185613512565b9350612f19836134c1565b8060005b83811015612f4a578151612f318882612e65565b9750612f3c836134f4565b925050600181019050612f1d565b5085935050505092915050565b612f6081613636565b82525050565b612f6f81613636565b82525050565b612f7e8161367d565b82525050565b612f8d8161367d565b82525050565b6000612fa0600f83613523565b91507f62616c616e636520746f6f206c6f7700000000000000000000000000000000006000830152602082019050919050565b6000612fe0600a83613523565b91507f6f6e6c792061646d696e000000000000000000000000000000000000000000006000830152602082019050919050565b6000613020601383613523565b91507f4441492062616c616e636520746f6f206c6f77000000000000000000000000006000830152602082019050919050565b6000613060601083613523565b91507f63616e6e6f7420747261646520444149000000000000000000000000000000006000830152602082019050919050565b60006130a0601583613523565b91507f746f6b656e2062616c616e636520746f6f206c6f7700000000000000000000006000830152602082019050919050565b60006130e0601983613523565b91507f7468697320746f6b656e20646f6573206e6f74206578697374000000000000006000830152602082019050919050565b6101008201600082015161312a60008501826131e4565b50602082015161313d6020850182612e7d565b5060408201516131506040850182612f75565b5060608201516131636060850182612f57565b50608082015161317660808501826131e4565b5060a082015161318960a08501826131e4565b5060c082015161319c60c08501826131e4565b5060e08201516131af60e08501826131e4565b50505050565b6040820160008201516131cb6000850182612f57565b5060208201516131de6020850182612e7d565b50505050565b6131ed81613673565b82525050565b6131fc81613673565b82525050565b60006020820190506132176000830184612e8c565b92915050565b60006060820190506132326000830186612e8c565b61323f6020830185612e8c565b61324c60408301846131f3565b949350505050565b60006040820190506132696000830185612e8c565b61327660208301846131f3565b9392505050565b600060208201905081810360008301526132978184612e9b565b905092915050565b600060208201905081810360008301526132b98184612ef9565b905092915050565b60006020820190506132d66000830184612f66565b92915050565b60006040820190506132f16000830185612f66565b6132fe6020830184612e8c565b9392505050565b6000602082019050818103600083015261331e81612f93565b9050919050565b6000602082019050818103600083015261333e81612fd3565b9050919050565b6000602082019050818103600083015261335e81613013565b9050919050565b6000602082019050818103600083015261337e81613053565b9050919050565b6000602082019050818103600083015261339e81613093565b9050919050565b600060208201905081810360008301526133be816130d3565b9050919050565b60006020820190506133da60008301846131f3565b92915050565b6000610100820190506133f6600083018b6131f3565b613403602083018a612e8c565b6134106040830189612f84565b61341d6060830188612f66565b61342a60808301876131f3565b61343760a08301866131f3565b61344460c08301856131f3565b61345160e08301846131f3565b9998505050505050505050565b600060a08201905061347360008301886131f3565b61348060208301876131f3565b61348d60408301866131f3565b61349a60608301856131f3565b6134a760808301846131f3565b9695505050505050565b6000819050602082019050919050565b6000819050602082019050919050565b600081519050919050565b600081519050919050565b6000602082019050919050565b6000602082019050919050565b600082825260208201905092915050565b600082825260208201905092915050565b600082825260208201905092915050565b600061353f82613673565b915061354a83613673565b9250827fffffffffffffffffffffffffffffffffffffffffffffffffffffffffffffffff0382111561357f5761357e613702565b5b828201905092915050565b600061359582613673565b91506135a083613673565b9250817fffffffffffffffffffffffffffffffffffffffffffffffffffffffffffffffff04831182151516156135d9576135d8613702565b5b828202905092915050565b60006135ef82613673565b91506135fa83613673565b92508282101561360d5761360c613702565b5b828203905092915050565b600061362382613653565b9050919050565b60008115159050919050565b6000819050919050565b600081905061364e82613760565b919050565b600073ffffffffffffffffffffffffffffffffffffffff82169050919050565b6000819050919050565b600061368882613640565b9050919050565b600061369a82613673565b915060008214156136ae576136ad613702565b5b600182039050919050565b60006136c482613673565b91507fffffffffffffffffffffffffffffffffffffffffffffffffffffffffffffffff8214156136f7576136f6613702565b5b600182019050919050565b7f4e487b7100000000000000000000000000000000000000000000000000000000600052601160045260246000fd5b7f4e487b7100000000000000000000000000000000000000000000000000000000600052602160045260246000fd5b6002811061377157613770613731565b5b50565b61377d81613618565b811461378857600080fd5b50565b6137948161362a565b811461379f57600080fd5b50565b6137ab81613636565b81146137b657600080fd5b50565b600281106137c657600080fd5b50565b6137d281613673565b81146137dd57600080fd5b5056fea26469706673582212204bfb468410826d1f9a19d845882241d1dbd0e9148fca9b9034a6fe728d0f735b64736f6c63430008000033",
  "immutableReferences": {},
  "source": "// SPDX-License-Identifier: GPL-3.0\n\npragma solidity ^0.8.0;\n\nimport \"@openzeppelin/contracts/token/ERC20/ERC20.sol\";\n/*\nTicker: DAI, ADA, - These are the symbols however \nstoring strings in Solidity is expensive so we use. \nbytes32 now our ticker can be 32 charaters long.\n.\n*/\n\ncontract Dex {\n\n\n    /// @dev Limit Market sides\n    enum Side {\n        BUY,\n        SELL\n    }\n\n    /// @dev Limit Market structure \n    struct Order {\n        uint256 id; \n        address trader; \n        Side side; \n        bytes32 ticker;\n        uint256 amount;\n        uint256 filled;\n        uint256 price;\n        uint256 date;\n    }\n\n    struct Token {\n        bytes32 ticker;\n        address tokenAddress;\n    }\n\n    mapping(bytes32 => Token) public tokens; // PAR => 0x123\n    mapping(address => mapping(bytes32 => uint256)) public traderBalances; // Ox123 => PAR => $100\n    // order book mapping 1 buy 0 sell - price time ordering best prices at the beginning[]\n    mapping(bytes32 => mapping(uint256 => Order[])) public orderBook; \n    bytes32[] public tokenList; // array of tokens to iterate through\n    address public admin; // admin address \n    uint256 public nextOrderId;// keep track of current order\n    uint256 public nextTradeId; // keep track of market order trades\n    bytes32 constant DAI = bytes32(\"DAI\"); // DAI Constant\n    \n    /// @dev NEW TRADE Event\n    event NewTrade(\n        uint256 tradeId,\n        uint256 orderId,\n        bytes32 indexed ticker,\n        address indexed trader1,\n        address indexed trader2,\n        uint256 amount, \n        uint256 price, \n        uint256 date\n    );\n\n    constructor() {\n        admin = msg.sender; // creator of the smart contract\n    }\n\n    // returns list of orders and their side\n    function getOrders(bytes32 ticker, Side side) external view returns(Order[] memory) {\n        return orderBook[ticker][uint256(side)];\n    }\n\n    // returns list of tokens \n    function getTokens() external view returns(Token[] memory) {\n      Token[] memory _tokens = new Token[](tokenList.length);\n      for (uint i = 0; i < tokenList.length; i++) {\n        _tokens[i] = Token(\n          tokens[tokenList[i]].ticker,\n          tokens[tokenList[i]].tokenAddress\n        );\n      }\n      return _tokens;\n    }\n\n    /// @dev TOKEN REGISTERY \n    function addToken(bytes32 ticker, address tokenAddress) onlyAdmin() external {\n        tokens[ticker] = Token(ticker, tokenAddress); // add token to mapping instantiationg the struct \n        tokenList.push(ticker); // add ticker to list \n    }\n\n    /// @dev WALLET \n    function deposit(bytes32 ticker, uint256 amount) tokenExist(ticker) external {\n        IERC20(tokens[ticker].tokenAddress).transferFrom( // interface\n            msg.sender, // from \n            address(this), // to \n            amount  // how much \n        ); \n        \n        // increment balance to the amount approved \n        traderBalances[msg.sender][ticker] += amount; \n    }\n\n    function withdraw(bytes32 ticker, uint256 amount) tokenExist(ticker) external {\n        require(traderBalances[msg.sender][ticker] >= amount, \"balance too low\"); // trader must have enough funds\n        traderBalances[msg.sender][ticker] -= amount; // safemath\n\n        IERC20(tokens[ticker].tokenAddress).transfer(  // interface\n            msg.sender, // to trader\n            amount  // how much \n        ); \n    }\n\n    /// @dev LIMIT ORDERS \n    function createLimitOrder(bytes32 ticker, uint256 amount, uint256 price, Side side) tokenExist(ticker) daiNotAllowed(ticker) external {      \n        if(side == Side.SELL) {\n         require(traderBalances[msg.sender][ticker] >= amount,\"token balance too low\"\n            ); // trader must have enough funds to sell\n        } else {\n            require(traderBalances[msg.sender][DAI] >= amount * price, \"DAI balance too low\"\n            ); // trader must have enough funds to buy\n        } \n        // instantiate order struct\n        Order[] storage orders = orderBook[ticker][uint256(side)];\n        // push order struct to storage\n        orders.push(Order(\n            nextOrderId,\n            msg.sender, \n            side,\n            ticker,\n            amount,\n            0, // orders start at 0\n            price,\n            block.timestamp\n        ));\n\n    // @dev - Bubble sort for price-time\n    uint i = orders.length > 0 ? orders.length - 1 : 0;\n    while(i > 0) {\n        // if the order fits the price-time sequence then stop the loop the prices are in order\n        if(side == Side.BUY && orders[i - 1].price > orders[i].price){\n            break;\n        }\n        if(side == Side.SELL && orders[i - 1].price < orders[i].price){\n            break; \n        }   // if the order isnt then swap till they are price-time aligned\n            Order memory order = orders[i - 1]; // add previous order to temporary memory \n            orders[i - 1] = orders[i]; // swap prev order with current\n            orders[i] = order; // swap current with previous\n            i--; //keep decrementing until we reach a break;\n          }\n        nextOrderId++; // increment id\n    }\n\n    /// @dev - CREATE MARKET ORDER \n    // if Im creating a market buy order I will need to get a list of sell orders\n    // if Im creating a market sell order Il will need to get a list of all of the buy orders\n    // Market orders can and will be matched against many different limit orders[market market order => limit sell \n    function createMarketOrder(bytes32 ticker, uint256 amount, Side side) tokenExist(ticker) daiNotAllowed(ticker) external {\n        if(side == Side.SELL) {\n            require(traderBalances[msg.sender][ticker] >= amount,\n            \"token balance too low\");\n            // instantiate the Order Book \n            /// @dev cast side as an integer \n            }\n            Order[] storage orders = orderBook[ticker][uint256(side == Side.BUY ? Side.SELL : Side.BUY)];\n            // iterate through the oderbook \n            uint256 i;\n            // the reamining of the ordre that hasnt been filled \n            uint256 remaining = amount;\n            // loop through the list of orderes\n            while(i < orders.length && remaining > 0) {\n                // whats left is the amount minus the amount of the order that has already been filled \n                uint256 available = orders[i].amount - orders[i].filled;\n                uint256 matched = (remaining > available) ? available : remaining;\n                remaining -= matched; \n                orders[i].filled += matched; \n                emit NewTrade(\n                    nextTradeId,\n                    orders[i].id,\n                    ticker,\n                    orders[i].trader, // the trader that created the other side of the transaction previously \n                    msg.sender,// trader that created the market order for this transaction\n                    matched, \n                    orders[i].price, \n                    block.timestamp\n                );\n  \n            /// @dev Update trader balances \n            // Sell asset for DAI and settle tx\n            if(side == Side.SELL) {\n                traderBalances[msg.sender][ticker]  -= matched; // sellers assets are subtracted - safemath\n                traderBalances[msg.sender][DAI] += matched * orders[i].price; // seller paid in DAI - safemath\n                traderBalances[orders[i].trader][ticker] += matched; // buyer recieves asset - safemath\n                traderBalances[orders[i].trader][DAI] -= matched * orders[i].price; // price for asset subtracted from account - safemath\n            }  \n            // BUY asset for DAI\n            if (side == Side.BUY) {\n                require(\n                    traderBalances[msg.sender][DAI] >= matched * orders[i].price, \"DAI balance too low\"\n                );\n            // Buy asset in DAI and settle tx\n                traderBalances[msg.sender][ticker] += matched;\n                traderBalances[msg.sender][DAI] -= matched * orders[i].price;\n                traderBalances[orders[i].trader][ticker] -= matched;\n                traderBalances[orders[i].trader][DAI] += matched * orders[i].price;\n            }\n            nextTradeId++; // \n            i++; // var to interate throguh order book \n            }      \n            // handling depletion of liquidity in the order book   \n            // prune orders that are totally matched.\n            // loop through all orders of the orderbook we will pop them off the list  \n            i = 0;\n            // while we havent reached the end of our order book \n            // orders filled that have the matching amount are popped off the stack\n            while(i < orders.length && orders[i].filled == orders[i].amount) { \n                 for(uint j = i; j < orders.length - 1; j++) {\n                     orders[j] = orders[j + 1]; \n                 }   \n                orders.pop(); // remove the last item of the array \n                i++;\n            }                \n        }\n    \n\n\n    modifier daiNotAllowed(bytes32 ticker) {\n        require(ticker != DAI, \"cannot trade DAI\");\n        _;\n    }\n\n    modifier tokenExist(bytes32 ticker) {\n        require(\n            tokens[ticker].tokenAddress != address(0),\n            \"this token does not exist\"\n        );\n        _;\n    }\n\n    modifier onlyAdmin() { // only the owner of the contract can execute\n        require(msg.sender == admin, 'only admin');\n        _;\n    }\n\n}\n\n",
  "sourcePath": "/Users/jamesahnking/Documents/solidity/001_experiments/002_dex/contracts/Dex.sol",
  "compiler": {
    "name": "solc",
    "version": "0.8.0+commit.c7dfd78e.Emscripten.clang"
  },
  "schemaVersion": "3.4.5",
  "updatedAt": "2022-05-20T15:42:12.968Z",
  "networkType": "ethereum",
  "devdoc": {
    "events": {
      "NewTrade(uint256,uint256,bytes32,address,address,uint256,uint256,uint256)": {
        "details": "NEW TRADE Event"
      }
    },
    "kind": "dev",
    "methods": {
      "addToken(bytes32,address)": {
        "details": "TOKEN REGISTERY "
      },
      "createLimitOrder(bytes32,uint256,uint256,uint8)": {
        "details": "LIMIT ORDERS "
      },
      "createMarketOrder(bytes32,uint256,uint8)": {
        "details": "- CREATE MARKET ORDER "
      },
      "deposit(bytes32,uint256)": {
        "details": "WALLET "
      }
    },
    "version": 1
  },
  "userdoc": {
    "kind": "user",
    "methods": {},
    "version": 1
  }
}