{
  "contractName": "MyDex",
  "abi": [
    {
      "inputs": [],
      "stateMutability": "nonpayable",
      "type": "constructor"
    },
    {
      "anonymous": false,
      "inputs": [
        {
          "indexed": false,
          "internalType": "uint256",
          "name": "tradeId",
          "type": "uint256"
        },
        {
          "indexed": false,
          "internalType": "uint256",
          "name": "orderId",
          "type": "uint256"
        },
        {
          "indexed": true,
          "internalType": "bytes32",
          "name": "ticker",
          "type": "bytes32"
        },
        {
          "indexed": true,
          "internalType": "address",
          "name": "trader1",
          "type": "address"
        },
        {
          "indexed": true,
          "internalType": "address",
          "name": "trader2",
          "type": "address"
        },
        {
          "indexed": false,
          "internalType": "uint256",
          "name": "amount",
          "type": "uint256"
        },
        {
          "indexed": false,
          "internalType": "uint256",
          "name": "price",
          "type": "uint256"
        },
        {
          "indexed": false,
          "internalType": "uint256",
          "name": "date",
          "type": "uint256"
        }
      ],
      "name": "NewTrade",
      "type": "event"
    },
    {
      "inputs": [],
      "name": "admin",
      "outputs": [
        {
          "internalType": "address",
          "name": "",
          "type": "address"
        }
      ],
      "stateMutability": "view",
      "type": "function"
    },
    {
      "inputs": [],
      "name": "nextOrderId",
      "outputs": [
        {
          "internalType": "uint256",
          "name": "",
          "type": "uint256"
        }
      ],
      "stateMutability": "view",
      "type": "function"
    },
    {
      "inputs": [],
      "name": "nextTradeId",
      "outputs": [
        {
          "internalType": "uint256",
          "name": "",
          "type": "uint256"
        }
      ],
      "stateMutability": "view",
      "type": "function"
    },
    {
      "inputs": [
        {
          "internalType": "bytes32",
          "name": "",
          "type": "bytes32"
        },
        {
          "internalType": "uint256",
          "name": "",
          "type": "uint256"
        },
        {
          "internalType": "uint256",
          "name": "",
          "type": "uint256"
        }
      ],
      "name": "orderBook",
      "outputs": [
        {
          "internalType": "uint256",
          "name": "id",
          "type": "uint256"
        },
        {
          "internalType": "address",
          "name": "trader",
          "type": "address"
        },
        {
          "internalType": "enum MyDex.Side",
          "name": "side",
          "type": "uint8"
        },
        {
          "internalType": "bytes32",
          "name": "ticker",
          "type": "bytes32"
        },
        {
          "internalType": "uint256",
          "name": "amount",
          "type": "uint256"
        },
        {
          "internalType": "uint256",
          "name": "filled",
          "type": "uint256"
        },
        {
          "internalType": "uint256",
          "name": "price",
          "type": "uint256"
        },
        {
          "internalType": "uint256",
          "name": "date",
          "type": "uint256"
        }
      ],
      "stateMutability": "view",
      "type": "function"
    },
    {
      "inputs": [
        {
          "internalType": "uint256",
          "name": "",
          "type": "uint256"
        }
      ],
      "name": "tokenList",
      "outputs": [
        {
          "internalType": "bytes32",
          "name": "",
          "type": "bytes32"
        }
      ],
      "stateMutability": "view",
      "type": "function"
    },
    {
      "inputs": [
        {
          "internalType": "bytes32",
          "name": "",
          "type": "bytes32"
        }
      ],
      "name": "tokens",
      "outputs": [
        {
          "internalType": "bytes32",
          "name": "ticker",
          "type": "bytes32"
        },
        {
          "internalType": "address",
          "name": "tokenAddress",
          "type": "address"
        }
      ],
      "stateMutability": "view",
      "type": "function"
    },
    {
      "inputs": [
        {
          "internalType": "address",
          "name": "",
          "type": "address"
        },
        {
          "internalType": "bytes32",
          "name": "",
          "type": "bytes32"
        }
      ],
      "name": "traderBalances",
      "outputs": [
        {
          "internalType": "uint256",
          "name": "",
          "type": "uint256"
        }
      ],
      "stateMutability": "view",
      "type": "function"
    },
    {
      "inputs": [
        {
          "internalType": "bytes32",
          "name": "ticker",
          "type": "bytes32"
        },
        {
          "internalType": "enum MyDex.Side",
          "name": "side",
          "type": "uint8"
        }
      ],
      "name": "getOrders",
      "outputs": [
        {
          "components": [
            {
              "internalType": "uint256",
              "name": "id",
              "type": "uint256"
            },
            {
              "internalType": "address",
              "name": "trader",
              "type": "address"
            },
            {
              "internalType": "enum MyDex.Side",
              "name": "side",
              "type": "uint8"
            },
            {
              "internalType": "bytes32",
              "name": "ticker",
              "type": "bytes32"
            },
            {
              "internalType": "uint256",
              "name": "amount",
              "type": "uint256"
            },
            {
              "internalType": "uint256",
              "name": "filled",
              "type": "uint256"
            },
            {
              "internalType": "uint256",
              "name": "price",
              "type": "uint256"
            },
            {
              "internalType": "uint256",
              "name": "date",
              "type": "uint256"
            }
          ],
          "internalType": "struct MyDex.Order[]",
          "name": "",
          "type": "tuple[]"
        }
      ],
      "stateMutability": "view",
      "type": "function"
    },
    {
      "inputs": [],
      "name": "getTokens",
      "outputs": [
        {
          "components": [
            {
              "internalType": "bytes32",
              "name": "ticker",
              "type": "bytes32"
            },
            {
              "internalType": "address",
              "name": "tokenAddress",
              "type": "address"
            }
          ],
          "internalType": "struct MyDex.Token[]",
          "name": "",
          "type": "tuple[]"
        }
      ],
      "stateMutability": "view",
      "type": "function"
    },
    {
      "inputs": [
        {
          "internalType": "bytes32",
          "name": "ticker",
          "type": "bytes32"
        },
        {
          "internalType": "address",
          "name": "tokenAddress",
          "type": "address"
        }
      ],
      "name": "addToken",
      "outputs": [],
      "stateMutability": "nonpayable",
      "type": "function"
    },
    {
      "inputs": [
        {
          "internalType": "uint256",
          "name": "amount",
          "type": "uint256"
        },
        {
          "internalType": "bytes32",
          "name": "ticker",
          "type": "bytes32"
        }
      ],
      "name": "deposit",
      "outputs": [],
      "stateMutability": "nonpayable",
      "type": "function"
    },
    {
      "inputs": [
        {
          "internalType": "uint256",
          "name": "amount",
          "type": "uint256"
        },
        {
          "internalType": "bytes32",
          "name": "ticker",
          "type": "bytes32"
        }
      ],
      "name": "withdraw",
      "outputs": [],
      "stateMutability": "nonpayable",
      "type": "function"
    },
    {
      "inputs": [
        {
          "internalType": "uint256",
          "name": "amount",
          "type": "uint256"
        },
        {
          "internalType": "bytes32",
          "name": "ticker",
          "type": "bytes32"
        },
        {
          "internalType": "uint256",
          "name": "price",
          "type": "uint256"
        },
        {
          "internalType": "enum MyDex.Side",
          "name": "side",
          "type": "uint8"
        }
      ],
      "name": "createLimitOrder",
      "outputs": [],
      "stateMutability": "nonpayable",
      "type": "function"
    },
    {
      "inputs": [
        {
          "internalType": "uint256",
          "name": "amount",
          "type": "uint256"
        },
        {
          "internalType": "bytes32",
          "name": "ticker",
          "type": "bytes32"
        },
        {
          "internalType": "enum MyDex.Side",
          "name": "side",
          "type": "uint8"
        }
      ],
      "name": "createMarketOrder",
      "outputs": [],
      "stateMutability": "nonpayable",
      "type": "function"
    }
  ],
  "bytecode": "0x608060405234801561001057600080fd5b5033600460006101000a81548173ffffffffffffffffffffffffffffffffffffffff021916908373ffffffffffffffffffffffffffffffffffffffff160217905550613816806100616000396000f3fe608060405234801561001057600080fd5b50600436106100ea5760003560e01c80639776aacf1161008c578063aa6ca80811610066578063aa6ca80814610277578063bb10fb1a14610295578063c9630cb0146102b1578063f851a440146102cd576100ea565b80639776aacf1461020f5780639ead72221461022b578063a8d2021a1461025b576100ea565b806346e9658b116100c857806346e9658b1461016057806372ce957e14610190578063813ad083146101c0578063904194a3146101de576100ea565b80630bb431b6146100ef5780632056ebfa146101265780632a58b33014610142575b600080fd5b61010960048036038101906101049190612ce6565b6102eb565b60405161011d9897969594939291906133e0565b60405180910390f35b610140600480360381019061013b9190612de9565b61038a565b005b61014a610f4f565b60405161015791906133c5565b60405180910390f35b61017a60048036038101906101759190612caa565b610f55565b604051610187919061327d565b60405180910390f35b6101aa60048036038101906101a59190612be0565b61112b565b6040516101b791906133c5565b60405180910390f35b6101c8611150565b6040516101d591906133c5565b60405180910390f35b6101f860048036038101906101f39190612c45565b611156565b6040516102069291906132dc565b60405180910390f35b61022960048036038101906102249190612c6e565b61119a565b005b61024560048036038101906102409190612d35565b6112e8565b60405161025291906132c1565b60405180910390f35b61027560048036038101906102709190612d5e565b61130c565b005b61027f611574565b60405161028c919061329f565b60405180910390f35b6102af60048036038101906102aa9190612d9a565b611765565b005b6102cb60048036038101906102c69190612d5e565b612947565b005b6102d5612b1e565b6040516102e29190613202565b60405180910390f35b6002602052826000526040600020602052816000526040600020818154811061031357600080fd5b906000526020600020906007020160009250925050508060000154908060010160009054906101000a900473ffffffffffffffffffffffffffffffffffffffff16908060010160149054906101000a900460ff16908060020154908060030154908060040154908060050154908060060154905088565b82600073ffffffffffffffffffffffffffffffffffffffff1660008083815260200190815260200160002060010160009054906101000a900473ffffffffffffffffffffffffffffffffffffffff1673ffffffffffffffffffffffffffffffffffffffff161415610430576040517f08c379a0000000000000000000000000000000000000000000000000000000008152600401610427906133a5565b60405180910390fd5b837f4441490000000000000000000000000000000000000000000000000000000000811415610494576040517f08c379a000000000000000000000000000000000000000000000000000000000815260040161048b90613365565b60405180910390fd5b6001808111156104cd577f4e487b7100000000000000000000000000000000000000000000000000000000600052602160045260246000fd5b836001811115610506577f4e487b7100000000000000000000000000000000000000000000000000000000600052602160045260246000fd5b14156105a45785600160003373ffffffffffffffffffffffffffffffffffffffff1673ffffffffffffffffffffffffffffffffffffffff168152602001908152602001600020600087815260200190815260200160002054101561059f576040517f08c379a000000000000000000000000000000000000000000000000000000000815260040161059690613385565b60405180910390fd5b610663565b83866105b0919061358a565b600160003373ffffffffffffffffffffffffffffffffffffffff1673ffffffffffffffffffffffffffffffffffffffff16815260200190815260200160002060007f44414900000000000000000000000000000000000000000000000000000000008152602001908152602001600020541015610662576040517f08c379a000000000000000000000000000000000000000000000000000000000815260040161065990613345565b60405180910390fd5b5b60006002600087815260200190815260200160002060008560018111156106b3577f4e487b7100000000000000000000000000000000000000000000000000000000600052602160045260246000fd5b815260200190815260200160002090508060405180610100016040528060055481526020013373ffffffffffffffffffffffffffffffffffffffff16815260200186600181111561072d577f4e487b7100000000000000000000000000000000000000000000000000000000600052602160045260246000fd5b8152602001888152602001898152602001600081526020018781526020014281525090806001815401808255809150506001900390600052602060002090600702016000909190919091506000820151816000015560208201518160010160006101000a81548173ffffffffffffffffffffffffffffffffffffffff021916908373ffffffffffffffffffffffffffffffffffffffff16021790555060408201518160010160146101000a81548160ff0219169083600181111561081a577f4e487b7100000000000000000000000000000000000000000000000000000000600052602160045260246000fd5b0217905550606082015181600201556080820151816003015560a0820151816004015560c0820151816005015560e082015181600601555050600080828054905011610867576000610879565b6001828054905061087891906135e4565b5b90505b6000811115610f2d57600060018111156108bf577f4e487b7100000000000000000000000000000000000000000000000000000000600052602160045260246000fd5b8560018111156108f8577f4e487b7100000000000000000000000000000000000000000000000000000000600052602160045260246000fd5b1480156109a45750818181548110610939577f4e487b7100000000000000000000000000000000000000000000000000000000600052603260045260246000fd5b9060005260206000209060070201600501548260018361095991906135e4565b81548110610990577f4e487b7100000000000000000000000000000000000000000000000000000000600052603260045260246000fd5b906000526020600020906007020160050154115b156109ae57610f2d565b6001808111156109e7577f4e487b7100000000000000000000000000000000000000000000000000000000600052602160045260246000fd5b856001811115610a20577f4e487b7100000000000000000000000000000000000000000000000000000000600052602160045260246000fd5b148015610acc5750818181548110610a61577f4e487b7100000000000000000000000000000000000000000000000000000000600052603260045260246000fd5b90600052602060002090600702016005015482600183610a8191906135e4565b81548110610ab8577f4e487b7100000000000000000000000000000000000000000000000000000000600052603260045260246000fd5b906000526020600020906007020160050154105b15610ad657610f2d565b600082600183610ae691906135e4565b81548110610b1d577f4e487b7100000000000000000000000000000000000000000000000000000000600052603260045260246000fd5b906000526020600020906007020160405180610100016040529081600082015481526020016001820160009054906101000a900473ffffffffffffffffffffffffffffffffffffffff1673ffffffffffffffffffffffffffffffffffffffff1673ffffffffffffffffffffffffffffffffffffffff1681526020016001820160149054906101000a900460ff166001811115610be2577f4e487b7100000000000000000000000000000000000000000000000000000000600052602160045260246000fd5b6001811115610c1a577f4e487b7100000000000000000000000000000000000000000000000000000000600052602160045260246000fd5b8152602001600282015481526020016003820154815260200160048201548152602001600582015481526020016006820154815250509050828281548110610c8b577f4e487b7100000000000000000000000000000000000000000000000000000000600052603260045260246000fd5b906000526020600020906007020183600184610ca791906135e4565b81548110610cde577f4e487b7100000000000000000000000000000000000000000000000000000000600052603260045260246000fd5b9060005260206000209060070201600082015481600001556001820160009054906101000a900473ffffffffffffffffffffffffffffffffffffffff168160010160006101000a81548173ffffffffffffffffffffffffffffffffffffffff021916908373ffffffffffffffffffffffffffffffffffffffff1602179055506001820160149054906101000a900460ff168160010160146101000a81548160ff02191690836001811115610dbb577f4e487b7100000000000000000000000000000000000000000000000000000000600052602160045260246000fd5b0217905550600282015481600201556003820154816003015560048201548160040155600582015481600501556006820154816006015590505080838381548110610e2f577f4e487b7100000000000000000000000000000000000000000000000000000000600052603260045260246000fd5b90600052602060002090600702016000820151816000015560208201518160010160006101000a81548173ffffffffffffffffffffffffffffffffffffffff021916908373ffffffffffffffffffffffffffffffffffffffff16021790555060408201518160010160146101000a81548160ff02191690836001811115610edf577f4e487b7100000000000000000000000000000000000000000000000000000000600052602160045260246000fd5b0217905550606082015181600201556080820151816003015560a0820151816004015560c0820151816005015560e082015181600601559050508180610f249061368f565b9250505061087c565b60056000815480929190610f40906136b9565b91905055505050505050505050565b60055481565b6060600260008481526020019081526020016000206000836001811115610fa5577f4e487b7100000000000000000000000000000000000000000000000000000000600052602160045260246000fd5b8152602001908152602001600020805480602002602001604051908101604052809291908181526020016000905b8282101561111f578382906000526020600020906007020160405180610100016040529081600082015481526020016001820160009054906101000a900473ffffffffffffffffffffffffffffffffffffffff1673ffffffffffffffffffffffffffffffffffffffff1673ffffffffffffffffffffffffffffffffffffffff1681526020016001820160149054906101000a900460ff1660018111156110a2577f4e487b7100000000000000000000000000000000000000000000000000000000600052602160045260246000fd5b60018111156110da577f4e487b7100000000000000000000000000000000000000000000000000000000600052602160045260246000fd5b81526020016002820154815260200160038201548152602001600482015481526020016005820154815260200160068201548152505081526020019060010190610fd3565b50505050905092915050565b6001602052816000526040600020602052806000526040600020600091509150505481565b60065481565b60006020528060005260406000206000915090508060000154908060010160009054906101000a900473ffffffffffffffffffffffffffffffffffffffff16905082565b600460009054906101000a900473ffffffffffffffffffffffffffffffffffffffff1673ffffffffffffffffffffffffffffffffffffffff163373ffffffffffffffffffffffffffffffffffffffff161461122a576040517f08c379a000000000000000000000000000000000000000000000000000000000815260040161122190613325565b60405180910390fd5b60405180604001604052808381526020018273ffffffffffffffffffffffffffffffffffffffff168152506000808481526020019081526020016000206000820151816000015560208201518160010160006101000a81548173ffffffffffffffffffffffffffffffffffffffff021916908373ffffffffffffffffffffffffffffffffffffffff16021790555090505060038290806001815401808255809150506001900390600052602060002001600090919091909150555050565b600381815481106112f857600080fd5b906000526020600020016000915090505481565b80600073ffffffffffffffffffffffffffffffffffffffff1660008083815260200190815260200160002060010160009054906101000a900473ffffffffffffffffffffffffffffffffffffffff1673ffffffffffffffffffffffffffffffffffffffff1614156113b2576040517f08c379a00000000000000000000000000000000000000000000000000000000081526004016113a9906133a5565b60405180910390fd5b82600160003373ffffffffffffffffffffffffffffffffffffffff1673ffffffffffffffffffffffffffffffffffffffff1681526020019081526020016000206000848152602001908152602001600020541015611445576040517f08c379a000000000000000000000000000000000000000000000000000000000815260040161143c90613305565b60405180910390fd5b82600160003373ffffffffffffffffffffffffffffffffffffffff1673ffffffffffffffffffffffffffffffffffffffff168152602001908152602001600020600084815260200190815260200160002060008282546114a591906135e4565b9250508190555060008083815260200190815260200160002060010160009054906101000a900473ffffffffffffffffffffffffffffffffffffffff1673ffffffffffffffffffffffffffffffffffffffff1663a9059cbb33856040518363ffffffff1660e01b815260040161151c929190613254565b602060405180830381600087803b15801561153657600080fd5b505af115801561154a573d6000803e3d6000fd5b505050506040513d601f19601f8201168201806040525081019061156e9190612c1c565b50505050565b6060600060038054905067ffffffffffffffff8111156115bd577f4e487b7100000000000000000000000000000000000000000000000000000000600052604160045260246000fd5b6040519080825280602002602001820160405280156115f657816020015b6115e3612b44565b8152602001906001900390816115db5790505b50905060005b60038054905081101561175d57604051806040016040528060008060038581548110611651577f4e487b7100000000000000000000000000000000000000000000000000000000600052603260045260246000fd5b90600052602060002001548152602001908152602001600020600001548152602001600080600385815481106116b0577f4e487b7100000000000000000000000000000000000000000000000000000000600052603260045260246000fd5b9060005260206000200154815260200190815260200160002060010160009054906101000a900473ffffffffffffffffffffffffffffffffffffffff1673ffffffffffffffffffffffffffffffffffffffff1681525082828151811061173f577f4e487b7100000000000000000000000000000000000000000000000000000000600052603260045260246000fd5b60200260200101819052508080611755906136b9565b9150506115fc565b508091505090565b81600073ffffffffffffffffffffffffffffffffffffffff1660008083815260200190815260200160002060010160009054906101000a900473ffffffffffffffffffffffffffffffffffffffff1673ffffffffffffffffffffffffffffffffffffffff16141561180b576040517f08c379a0000000000000000000000000000000000000000000000000000000008152600401611802906133a5565b60405180910390fd5b827f444149000000000000000000000000000000000000000000000000000000000081141561186f576040517f08c379a000000000000000000000000000000000000000000000000000000000815260040161186690613365565b60405180910390fd5b6001808111156118a8577f4e487b7100000000000000000000000000000000000000000000000000000000600052602160045260246000fd5b8360018111156118e1577f4e487b7100000000000000000000000000000000000000000000000000000000600052602160045260246000fd5b141561197b5784600160003373ffffffffffffffffffffffffffffffffffffffff1673ffffffffffffffffffffffffffffffffffffffff168152602001908152602001600020600086815260200190815260200160002054101561197a576040517f08c379a000000000000000000000000000000000000000000000000000000000815260040161197190613385565b60405180910390fd5b5b60006002600086815260200190815260200160002060008060018111156119cb577f4e487b7100000000000000000000000000000000000000000000000000000000600052602160045260246000fd5b866001811115611a04577f4e487b7100000000000000000000000000000000000000000000000000000000600052602160045260246000fd5b14611a10576000611a13565b60015b6001811115611a4b577f4e487b7100000000000000000000000000000000000000000000000000000000600052602160045260246000fd5b815260200190815260200160002090506000808790505b828054905082108015611a755750600081115b156125ea576000838381548110611ab5577f4e487b7100000000000000000000000000000000000000000000000000000000600052603260045260246000fd5b906000526020600020906007020160040154848481548110611b00577f4e487b7100000000000000000000000000000000000000000000000000000000600052603260045260246000fd5b906000526020600020906007020160030154611b1c91906135e4565b90506000818311611b2d5782611b2f565b815b90508083611b3d91906135e4565b925080858581548110611b79577f4e487b7100000000000000000000000000000000000000000000000000000000600052603260045260246000fd5b90600052602060002090600702016004016000828254611b999190613534565b925050819055503373ffffffffffffffffffffffffffffffffffffffff16858581548110611bf0577f4e487b7100000000000000000000000000000000000000000000000000000000600052603260045260246000fd5b906000526020600020906007020160010160009054906101000a900473ffffffffffffffffffffffffffffffffffffffff1673ffffffffffffffffffffffffffffffffffffffff168a7fdb0c486e680ba8026643e6a85f8d157b5e7bcd4b32b54d564542570a9eb20416600654898981548110611c96577f4e487b7100000000000000000000000000000000000000000000000000000000600052603260045260246000fd5b906000526020600020906007020160000154868b8b81548110611ce2577f4e487b7100000000000000000000000000000000000000000000000000000000600052603260045260246000fd5b90600052602060002090600702016005015442604051611d0695949392919061345e565b60405180910390a4600180811115611d47577f4e487b7100000000000000000000000000000000000000000000000000000000600052602160045260246000fd5b886001811115611d80577f4e487b7100000000000000000000000000000000000000000000000000000000600052602160045260246000fd5b14156120e15780600160003373ffffffffffffffffffffffffffffffffffffffff1673ffffffffffffffffffffffffffffffffffffffff16815260200190815260200160002060008b81526020019081526020016000206000828254611de691906135e4565b92505081905550848481548110611e26577f4e487b7100000000000000000000000000000000000000000000000000000000600052603260045260246000fd5b90600052602060002090600702016005015481611e43919061358a565b600160003373ffffffffffffffffffffffffffffffffffffffff1673ffffffffffffffffffffffffffffffffffffffff16815260200190815260200160002060007f444149000000000000000000000000000000000000000000000000000000000081526020019081526020016000206000828254611ec29190613534565b925050819055508060016000878781548110611f07577f4e487b7100000000000000000000000000000000000000000000000000000000600052603260045260246000fd5b906000526020600020906007020160010160009054906101000a900473ffffffffffffffffffffffffffffffffffffffff1673ffffffffffffffffffffffffffffffffffffffff1673ffffffffffffffffffffffffffffffffffffffff16815260200190815260200160002060008b81526020019081526020016000206000828254611f939190613534565b92505081905550848481548110611fd3577f4e487b7100000000000000000000000000000000000000000000000000000000600052603260045260246000fd5b90600052602060002090600702016005015481611ff0919061358a565b6001600087878154811061202d577f4e487b7100000000000000000000000000000000000000000000000000000000600052603260045260246000fd5b906000526020600020906007020160010160009054906101000a900473ffffffffffffffffffffffffffffffffffffffff1673ffffffffffffffffffffffffffffffffffffffff1673ffffffffffffffffffffffffffffffffffffffff16815260200190815260200160002060007f4441490000000000000000000000000000000000000000000000000000000000815260200190815260200160002060008282546120d991906135e4565b925050819055505b6000600181111561211b577f4e487b7100000000000000000000000000000000000000000000000000000000600052602160045260246000fd5b886001811115612154577f4e487b7100000000000000000000000000000000000000000000000000000000600052602160045260246000fd5b14156125bd57848481548110612193577f4e487b7100000000000000000000000000000000000000000000000000000000600052603260045260246000fd5b906000526020600020906007020160050154816121b0919061358a565b600160003373ffffffffffffffffffffffffffffffffffffffff1673ffffffffffffffffffffffffffffffffffffffff16815260200190815260200160002060007f44414900000000000000000000000000000000000000000000000000000000008152602001908152602001600020541015612262576040517f08c379a000000000000000000000000000000000000000000000000000000000815260040161225990613345565b60405180910390fd5b80600160003373ffffffffffffffffffffffffffffffffffffffff1673ffffffffffffffffffffffffffffffffffffffff16815260200190815260200160002060008b815260200190815260200160002060008282546122c29190613534565b92505081905550848481548110612302577f4e487b7100000000000000000000000000000000000000000000000000000000600052603260045260246000fd5b9060005260206000209060070201600501548161231f919061358a565b600160003373ffffffffffffffffffffffffffffffffffffffff1673ffffffffffffffffffffffffffffffffffffffff16815260200190815260200160002060007f44414900000000000000000000000000000000000000000000000000000000008152602001908152602001600020600082825461239e91906135e4565b9250508190555080600160008787815481106123e3577f4e487b7100000000000000000000000000000000000000000000000000000000600052603260045260246000fd5b906000526020600020906007020160010160009054906101000a900473ffffffffffffffffffffffffffffffffffffffff1673ffffffffffffffffffffffffffffffffffffffff1673ffffffffffffffffffffffffffffffffffffffff16815260200190815260200160002060008b8152602001908152602001600020600082825461246f91906135e4565b925050819055508484815481106124af577f4e487b7100000000000000000000000000000000000000000000000000000000600052603260045260246000fd5b906000526020600020906007020160050154816124cc919061358a565b60016000878781548110612509577f4e487b7100000000000000000000000000000000000000000000000000000000600052603260045260246000fd5b906000526020600020906007020160010160009054906101000a900473ffffffffffffffffffffffffffffffffffffffff1673ffffffffffffffffffffffffffffffffffffffff1673ffffffffffffffffffffffffffffffffffffffff16815260200190815260200160002060007f4441490000000000000000000000000000000000000000000000000000000000815260200190815260200160002060008282546125b59190613534565b925050819055505b600660008154809291906125d0906136b9565b919050555083806125e0906136b9565b9450505050611a62565b600091505b8280549050821080156126955750828281548110612636577f4e487b7100000000000000000000000000000000000000000000000000000000600052603260045260246000fd5b906000526020600020906007020160030154838381548110612681577f4e487b7100000000000000000000000000000000000000000000000000000000600052603260045260246000fd5b906000526020600020906007020160040154145b1561293d5760008290505b600184805490506126b191906135e4565b81101561286e57836001826126c69190613534565b815481106126fd577f4e487b7100000000000000000000000000000000000000000000000000000000600052603260045260246000fd5b9060005260206000209060070201848281548110612744577f4e487b7100000000000000000000000000000000000000000000000000000000600052603260045260246000fd5b9060005260206000209060070201600082015481600001556001820160009054906101000a900473ffffffffffffffffffffffffffffffffffffffff168160010160006101000a81548173ffffffffffffffffffffffffffffffffffffffff021916908373ffffffffffffffffffffffffffffffffffffffff1602179055506001820160149054906101000a900460ff168160010160146101000a81548160ff02191690836001811115612821577f4e487b7100000000000000000000000000000000000000000000000000000000600052602160045260246000fd5b021790555060028201548160020155600382015481600301556004820154816004015560058201548160050155600682015481600601559050508080612866906136b9565b9150506126a0565b50828054806128a6577f4e487b7100000000000000000000000000000000000000000000000000000000600052603160045260246000fd5b60019003818190600052602060002090600702016000808201600090556001820160006101000a81549073ffffffffffffffffffffffffffffffffffffffff02191690556001820160146101000a81549060ff021916905560028201600090556003820160009055600482016000905560058201600090556006820160009055505090558180612935906136b9565b9250506125ef565b5050505050505050565b80600073ffffffffffffffffffffffffffffffffffffffff1660008083815260200190815260200160002060010160009054906101000a900473ffffffffffffffffffffffffffffffffffffffff1673ffffffffffffffffffffffffffffffffffffffff1614156129ed576040517f08c379a00000000000000000000000000000000000000000000000000000000081526004016129e4906133a5565b60405180910390fd5b60008083815260200190815260200160002060010160009054906101000a900473ffffffffffffffffffffffffffffffffffffffff1673ffffffffffffffffffffffffffffffffffffffff166323b872dd3330866040518463ffffffff1660e01b8152600401612a5f9392919061321d565b602060405180830381600087803b158015612a7957600080fd5b505af1158015612a8d573d6000803e3d6000fd5b505050506040513d601f19601f82011682018060405250810190612ab19190612c1c565b5082600160003373ffffffffffffffffffffffffffffffffffffffff1673ffffffffffffffffffffffffffffffffffffffff16815260200190815260200160002060008481526020019081526020016000206000828254612b129190613534565b92505081905550505050565b600460009054906101000a900473ffffffffffffffffffffffffffffffffffffffff1681565b604051806040016040528060008019168152602001600073ffffffffffffffffffffffffffffffffffffffff1681525090565b600081359050612b8681613774565b92915050565b600081519050612b9b8161378b565b92915050565b600081359050612bb0816137a2565b92915050565b600081359050612bc5816137b9565b92915050565b600081359050612bda816137c9565b92915050565b60008060408385031215612bf357600080fd5b6000612c0185828601612b77565b9250506020612c1285828601612ba1565b9150509250929050565b600060208284031215612c2e57600080fd5b6000612c3c84828501612b8c565b91505092915050565b600060208284031215612c5757600080fd5b6000612c6584828501612ba1565b91505092915050565b60008060408385031215612c8157600080fd5b6000612c8f85828601612ba1565b9250506020612ca085828601612b77565b9150509250929050565b60008060408385031215612cbd57600080fd5b6000612ccb85828601612ba1565b9250506020612cdc85828601612bb6565b9150509250929050565b600080600060608486031215612cfb57600080fd5b6000612d0986828701612ba1565b9350506020612d1a86828701612bcb565b9250506040612d2b86828701612bcb565b9150509250925092565b600060208284031215612d4757600080fd5b6000612d5584828501612bcb565b91505092915050565b60008060408385031215612d7157600080fd5b6000612d7f85828601612bcb565b9250506020612d9085828601612ba1565b9150509250929050565b600080600060608486031215612daf57600080fd5b6000612dbd86828701612bcb565b9350506020612dce86828701612ba1565b9250506040612ddf86828701612bb6565b9150509250925092565b60008060008060808587031215612dff57600080fd5b6000612e0d87828801612bcb565b9450506020612e1e87828801612ba1565b9350506040612e2f87828801612bcb565b9250506060612e4087828801612bb6565b91505092959194509250565b6000612e588383613113565b6101008301905092915050565b6000612e7183836131b5565b60408301905092915050565b612e8681613618565b82525050565b612e9581613618565b82525050565b6000612ea6826134d1565b612eb08185613501565b9350612ebb836134b1565b8060005b83811015612eec578151612ed38882612e4c565b9750612ede836134e7565b925050600181019050612ebf565b5085935050505092915050565b6000612f04826134dc565b612f0e8185613512565b9350612f19836134c1565b8060005b83811015612f4a578151612f318882612e65565b9750612f3c836134f4565b925050600181019050612f1d565b5085935050505092915050565b612f6081613636565b82525050565b612f6f81613636565b82525050565b612f7e8161367d565b82525050565b612f8d8161367d565b82525050565b6000612fa0600f83613523565b91507f62616c616e636520746f6f206c6f7700000000000000000000000000000000006000830152602082019050919050565b6000612fe0600a83613523565b91507f6f6e6c792061646d696e000000000000000000000000000000000000000000006000830152602082019050919050565b6000613020601383613523565b91507f4441492062616c616e636520746f6f206c6f77000000000000000000000000006000830152602082019050919050565b6000613060601083613523565b91507f63616e6e6f7420747261646520444149000000000000000000000000000000006000830152602082019050919050565b60006130a0601583613523565b91507f746f6b656e2062616c616e636520746f6f206c6f7700000000000000000000006000830152602082019050919050565b60006130e0601983613523565b91507f7468697320746f6b656e20646f6573206e6f74206578697374000000000000006000830152602082019050919050565b6101008201600082015161312a60008501826131e4565b50602082015161313d6020850182612e7d565b5060408201516131506040850182612f75565b5060608201516131636060850182612f57565b50608082015161317660808501826131e4565b5060a082015161318960a08501826131e4565b5060c082015161319c60c08501826131e4565b5060e08201516131af60e08501826131e4565b50505050565b6040820160008201516131cb6000850182612f57565b5060208201516131de6020850182612e7d565b50505050565b6131ed81613673565b82525050565b6131fc81613673565b82525050565b60006020820190506132176000830184612e8c565b92915050565b60006060820190506132326000830186612e8c565b61323f6020830185612e8c565b61324c60408301846131f3565b949350505050565b60006040820190506132696000830185612e8c565b61327660208301846131f3565b9392505050565b600060208201905081810360008301526132978184612e9b565b905092915050565b600060208201905081810360008301526132b98184612ef9565b905092915050565b60006020820190506132d66000830184612f66565b92915050565b60006040820190506132f16000830185612f66565b6132fe6020830184612e8c565b9392505050565b6000602082019050818103600083015261331e81612f93565b9050919050565b6000602082019050818103600083015261333e81612fd3565b9050919050565b6000602082019050818103600083015261335e81613013565b9050919050565b6000602082019050818103600083015261337e81613053565b9050919050565b6000602082019050818103600083015261339e81613093565b9050919050565b600060208201905081810360008301526133be816130d3565b9050919050565b60006020820190506133da60008301846131f3565b92915050565b6000610100820190506133f6600083018b6131f3565b613403602083018a612e8c565b6134106040830189612f84565b61341d6060830188612f66565b61342a60808301876131f3565b61343760a08301866131f3565b61344460c08301856131f3565b61345160e08301846131f3565b9998505050505050505050565b600060a08201905061347360008301886131f3565b61348060208301876131f3565b61348d60408301866131f3565b61349a60608301856131f3565b6134a760808301846131f3565b9695505050505050565b6000819050602082019050919050565b6000819050602082019050919050565b600081519050919050565b600081519050919050565b6000602082019050919050565b6000602082019050919050565b600082825260208201905092915050565b600082825260208201905092915050565b600082825260208201905092915050565b600061353f82613673565b915061354a83613673565b9250827fffffffffffffffffffffffffffffffffffffffffffffffffffffffffffffffff0382111561357f5761357e613702565b5b828201905092915050565b600061359582613673565b91506135a083613673565b9250817fffffffffffffffffffffffffffffffffffffffffffffffffffffffffffffffff04831182151516156135d9576135d8613702565b5b828202905092915050565b60006135ef82613673565b91506135fa83613673565b92508282101561360d5761360c613702565b5b828203905092915050565b600061362382613653565b9050919050565b60008115159050919050565b6000819050919050565b600081905061364e82613760565b919050565b600073ffffffffffffffffffffffffffffffffffffffff82169050919050565b6000819050919050565b600061368882613640565b9050919050565b600061369a82613673565b915060008214156136ae576136ad613702565b5b600182039050919050565b60006136c482613673565b91507fffffffffffffffffffffffffffffffffffffffffffffffffffffffffffffffff8214156136f7576136f6613702565b5b600182019050919050565b7f4e487b7100000000000000000000000000000000000000000000000000000000600052601160045260246000fd5b7f4e487b7100000000000000000000000000000000000000000000000000000000600052602160045260246000fd5b6002811061377157613770613731565b5b50565b61377d81613618565b811461378857600080fd5b50565b6137948161362a565b811461379f57600080fd5b50565b6137ab81613636565b81146137b657600080fd5b50565b600281106137c657600080fd5b50565b6137d281613673565b81146137dd57600080fd5b5056fea26469706673582212200097b4752e6c71b8493863a0b92c818d3b7a7adc9adce436c64aa8175a34141a64736f6c63430008000033",
  "immutableReferences": {},
  "source": "// SPDX-License-Identifier: GPL-3.0\n\npragma solidity ^0.8.0;\n\nimport \"@openzeppelin/contracts/token/ERC20/ERC20.sol\";\n/*\nTicker: DAI, ADA, - These are the symbols however \nstoring strings in Solidity is expensive so we use. \nbytes32 now our ticker can be 32 charaters long.\n.\n*/\n\ncontract MyDex {\n\n\n    /// @dev Limite Market sides\n    enum Side {\n        BUY,\n        SELL\n    }\n\n    /// @dev Limit Market structure \n    struct Order {\n        uint256 id; \n        address trader; \n        Side side; \n        bytes32 ticker;\n        uint256 amount;\n        uint256 filled;\n        uint256 price;\n        uint256 date;\n    }\n\n    struct Token {\n        bytes32 ticker;\n        address tokenAddress;\n    }\n\n    mapping(bytes32 => Token) public tokens; // PAR => 0x123\n    mapping(address => mapping(bytes32 => uint256)) public traderBalances; // Ox123 => PAR => $100\n    // order book mapping 1 buy 0 sell - price time ordering best prices at the beginning[]\n    mapping(bytes32 => mapping(uint256 => Order[])) public orderBook; \n    bytes32[] public tokenList; // array of tokens to iterate through\n    address public admin; // admin address \n    uint256 public nextOrderId;// keep track of current order\n    uint256 public nextTradeId; // keep track of market order trades\n    bytes32 constant DAI = bytes32(\"DAI\"); // DAI Constant\n    \n    /// @dev NEW TRADE Event\n    event NewTrade(\n        uint256 tradeId,\n        uint256 orderId,\n        bytes32 indexed ticker,\n        address indexed trader1,\n        address indexed trader2,\n        uint256 amount, \n        uint256 price, \n        uint256 date\n    );\n\n    constructor() {\n        admin = msg.sender; // creator of the smart contract\n    }\n\n    // returns list of orders \n    function getOrders(bytes32 ticker, Side side) external view returns(Order[] memory) {\n        return orderBook[ticker][uint256(side)];\n    }\n\n    // returns list of tokens \n    function getTokens() external view returns(Token[] memory) {\n      Token[] memory _tokens = new Token[](tokenList.length);\n      for (uint i = 0; i < tokenList.length; i++) {\n        _tokens[i] = Token(\n          tokens[tokenList[i]].ticker,\n          tokens[tokenList[i]].tokenAddress\n        );\n      }\n      return _tokens;\n    }\n\n    /// @dev TOKEN REGISTERY \n    function addToken(bytes32 ticker, address tokenAddress) onlyAdmin() external {\n        tokens[ticker] = Token(ticker, tokenAddress); // add token to mapping instantiationg the struct \n        tokenList.push(ticker); // add ticker to list \n    }\n\n    /// @dev WALLET \n    function deposit(uint256 amount, bytes32 ticker) tokenExist(ticker) external {\n        IERC20(tokens[ticker].tokenAddress).transferFrom( // interface\n            msg.sender, // from \n            address(this), // to \n            amount  // how much \n        ); \n        \n        // increment balance to the amount approved \n        traderBalances[msg.sender][ticker] += amount; \n    }\n\n    function withdraw( uint256 amount, bytes32 ticker) tokenExist(ticker) external {\n        require(traderBalances[msg.sender][ticker] >= amount, \"balance too low\"); // trader must have enough funds\n        traderBalances[msg.sender][ticker] -= amount; // safemath\n\n        IERC20(tokens[ticker].tokenAddress).transfer(  // interface\n            msg.sender, // to trader\n            amount  // how much \n        ); \n    }\n\n    /// @dev LIMIT ORDERS \n    function createLimitOrder(uint256 amount, bytes32 ticker, uint256 price, Side side) tokenExist(ticker) daiNotAllowed(ticker) external {      \n        if(side == Side.SELL) {\n         require(traderBalances[msg.sender][ticker] >= amount,\"token balance too low\"\n            ); // trader must have enough funds to sell\n        } else {\n            require(traderBalances[msg.sender][DAI] >= amount * price, \"DAI balance too low\"\n            ); // trader must have enough funds to buy\n        } \n        // instantiate order struct\n        Order[] storage orders = orderBook[ticker][uint256(side)];\n        // push order struct to storage\n        orders.push(Order(\n            nextOrderId,\n            msg.sender, \n            side,\n            ticker,\n            amount,\n            0, // orders start at 0\n            price,\n            block.timestamp\n        ));\n\n    // @dev - Bubble sort for price-time\n    uint i = orders.length > 0 ? orders.length - 1 : 0;\n    while(i > 0) {\n        // if the order fits the price-time sequence then stop the loop the prices are in order\n        if(side == Side.BUY && orders[i - 1].price > orders[i].price){\n            break;\n        }\n        if(side == Side.SELL && orders[i - 1].price < orders[i].price){\n            break; \n        }   // if the order isnt then swap till they are price-time aligned\n            Order memory order = orders[i - 1]; // add previous order to temp memory \n            orders[i - 1] = orders[i]; // swap prev order with current\n            orders[i] = order; // swap current with previous\n            i--; //keep decrementing until we reach a break;\n          }\n        nextOrderId++; // increment id\n    }\n\n    /// @dev - CREATE MARKET ORDER \n    // if Im creating a market buy order I will need to get a list of sell orders\n    // if Im creating a market sell order Il will need to get a list of all of the buy orders\n    // Market orders can and will be matched against many different limit orders[market market order => limit sell \n    function createMarketOrder(uint256 amount, bytes32 ticker, Side side) tokenExist(ticker) daiNotAllowed(ticker) external {\n        if(side == Side.SELL) {\n            require(traderBalances[msg.sender][ticker] >= amount,\n            \"token balance too low\");\n            // instantiate the Order Book \n            /// @dev cast side as an integer \n            }\n            Order[] storage orders = orderBook[ticker][uint256(side == Side.BUY ? Side.SELL : Side.BUY)];\n            // iterate through the oderbook \n            uint256 i;\n            // the reamining of the ordre that hasnt been filled \n            uint256 remaining = amount;\n            // loop through the list of orderes\n            while(i < orders.length && remaining > 0) {\n                // whats left is the amount minus the amount of the order that has already been filled \n                uint256 available = orders[i].amount - orders[i].filled;\n                uint256 matched = (remaining > available) ? available : remaining;\n                remaining -= matched; \n                orders[i].filled += matched; \n                emit NewTrade(\n                    nextTradeId,\n                    orders[i].id,\n                    ticker,\n                    orders[i].trader, // the trader that created the other side of the transaction previously \n                    msg.sender,// trader that created the market order for this transaction\n                    matched, \n                    orders[i].price, \n                    block.timestamp\n                );\n  \n            /// @dev Update trader balances \n            // Sell asset for DAI and settle tx\n            if(side == Side.SELL) {\n                traderBalances[msg.sender][ticker]  -= matched; // sellers assets are subtracted - safemath\n                traderBalances[msg.sender][DAI] += matched * orders[i].price; // seller paid in DAI - safemath\n                traderBalances[orders[i].trader][ticker] += matched; // buyer recieves asset - safemath\n                traderBalances[orders[i].trader][DAI] -= matched * orders[i].price; // price for asset subtracted from account - safemath\n            }  \n            // BUY asset for DAI\n            if (side == Side.BUY) {\n                require(\n                    traderBalances[msg.sender][DAI] >= matched * orders[i].price, \"DAI balance too low\"\n                );\n            // Buy asset in DAI and settle tx\n                traderBalances[msg.sender][ticker] += matched;\n                traderBalances[msg.sender][DAI] -= matched * orders[i].price;\n                traderBalances[orders[i].trader][ticker] -= matched;\n                traderBalances[orders[i].trader][DAI] += matched * orders[i].price;\n            }\n            nextTradeId++; // \n            i++; // var to interate throguh order book \n            }      \n            // handling depletion of liquidity in the order book   \n            // prune orders that are totally matched.\n            // loop through all orders of the orderbook we will pop them off the list  \n            i = 0;\n            // while we havent reached the end of our order book \n            // orders filled that have the matching amount are popped off the stack\n            while(i < orders.length && orders[i].filled == orders[i].amount) { \n                 for(uint j = i; j < orders.length - 1; j++) {\n                     orders[j] = orders[j + 1]; \n                 }   \n                orders.pop(); // remove the last item of the array \n                i++;\n            }                \n        }\n    \n\n\n    modifier daiNotAllowed(bytes32 ticker) {\n        require(ticker != DAI, \"cannot trade DAI\");\n        _;\n    }\n\n    modifier tokenExist(bytes32 ticker) {\n        require(\n            tokens[ticker].tokenAddress != address(0),\n            \"this token does not exist\"\n        );\n        _;\n    }\n\n    modifier onlyAdmin() { // only the owner of the contract can execute\n        require(msg.sender == admin, 'only admin');\n        _;\n    }\n\n}\n\n",
  "sourcePath": "/Users/jamesahnking/Documents/solidity/001_experiments/002_dex/contracts/MyDex.sol",
  "compiler": {
    "name": "solc",
    "version": "0.8.0+commit.c7dfd78e.Emscripten.clang"
  },
  "schemaVersion": "3.4.5",
  "updatedAt": "2022-02-25T18:30:59.056Z",
  "devdoc": {
    "events": {
      "NewTrade(uint256,uint256,bytes32,address,address,uint256,uint256,uint256)": {
        "details": "NEW TRADE Event"
      }
    },
    "kind": "dev",
    "methods": {
      "addToken(bytes32,address)": {
        "details": "TOKEN REGISTERY "
      },
      "createLimitOrder(uint256,bytes32,uint256,uint8)": {
        "details": "LIMIT ORDERS "
      },
      "createMarketOrder(uint256,bytes32,uint8)": {
        "details": "- CREATE MARKET ORDER "
      },
      "deposit(uint256,bytes32)": {
        "details": "WALLET "
      }
    },
    "version": 1
  },
  "userdoc": {
    "kind": "user",
    "methods": {},
    "version": 1
  }
}